:020000040000FA
:100000000C94C6000C94EE000C94EE000C94EE00E0
:100010000C94EE000C94EE000C9425190C94EE0058
:100020000C94EE000C94EE000C94EE000C94090A73
:100030000C94EE000C94EE000C94EE000C94EE0088
:100040000C94BF090C94EE000C948D090C94670974
:100050000C94EE000C94EE000C94EE000C94EE0068
:100060000C94EE000C94EE005D3A200020436F6E7D
:1000700074726F6C20005B20494E464F205D5B0020
:100080005D3A200020436F6E74726F6C20005B201D
:10009000494E464F205D5B005D3A200020436F6E65
:1000A00074726F6C20005B20494E464F205D5B00F0
:1000B0005D3A200020436F6E74726F6C20005B20ED
:1000C000494E464F205D5B005D3A200020436F6E35
:1000D00074726F6C20005B20494E464F205D5B00C0
:1000E0005D3A200020436F6E74726F6C20005B20BD
:1000F000494E464F205D5B005D3A200020436F6E05
:1001000074726F6C20005B20494E464F205D5B008F
:100110005D3A2000204D6F74696F6E457374696D90
:1001200061746F7220005B20494E464F205D5B007A
:100130000000000023002600290000000000240029
:1001400027002A0000000000250028002B000404DE
:10015000040404040404020202020202030303036F
:10016000030301020408102040800102040810204B
:100170000102040810200000000800020100000332
:1001800004070000000000000000281911241FBE11
:10019000CFEFD8E0DEBFCDBF11E0A0E0B1E0E2E6F6
:1001A000FDE302C005900D92A63BB107D9F723E00D
:1001B000A6EBB1E001C01D92A435B207E1F710E053
:1001C000C6ECD0E004C02197FE010E94851EC53C0C
:1001D000D107C9F70E94E9190C94AF1E0C940000D6
:1001E000AF92BF92CF92DF92EF92FF920F931F9345
:1001F000CF93DF936C017B018B01040F151FEB0183
:100200005E01AE18BF08C017D10759F06991D60139
:10021000ED91FC910190F081E02DC6010995892BAB
:1002200079F7C501DF91CF911F910F91FF90EF906A
:10023000DF90CF90BF90AF900895FC01538D448D17
:10024000252F30E0842F90E0821B930B541710F081
:10025000CF96089501970895FC01918D828D98178E
:1002600061F0A28DAE0FBF2FB11D5D968C91928D66
:100270009F5F9F73928F90E008958FEF9FEF089597
:10028000FC01918D828D981731F0828DE80FF11D60
:10029000858D90E008958FEF9FEF0895FC01918D7B
:1002A000228D892F90E0805C9F4F821B91098F7374
:1002B000992708958EE492E00E944E0121E0892B57
:1002C00009F420E0822F08950E945A0181110C94B4
:1002D0000000089580E090E0892B11F00C946401F7
:1002E0000895FC01A48DA80FB92FB11DA35ABF4FCB
:1002F0002C91848D90E001968F739927848FA68925
:10030000B7892C93A089B1898C91837080648C9378
:10031000938D848D981306C00288F389E02D808127
:100320008F7D80830895EF92FF920F931F93CF9359
:10033000DF93EC0181E0888F9B8D8C8D98131AC020
:10034000E889F989808185FF15C09FB7F894EE8907
:10035000FF896083E889F989808183708064808364
:100360009FBF81E090E0DF91CF911F910F91FF90AF
:10037000EF900895F62E0B8D10E00F5F1F4F0F7357
:100380001127E02E8C8D8E110CC00FB607FCFACF12
:10039000E889F989808185FFF5CFCE010E9471013E
:1003A000F1CFEB8DEC0FFD2FF11DE35AFF4FF082E3
:1003B0009FB7F8940B8FEA89FB8980818062CFCF49
:1003C0000F931F93CF93DF938C01D0E0C0E0F8012F
:1003D000EC0FFD1F6491662341F08EE492E00E94D1
:1003E0009301892B11F02196F2CFCE01DF91CF91AD
:1003F0001F910F910895CF93DF93EC01888D88238F
:10040000B9F0AA89BB89E889F9898C9185FD03C077
:10041000808186FD0DC00FB607FCF7CF8C9185FF5C
:10042000F2CF808185FFEDCFCE010E947101E9CF2F
:10043000DF91CF910895833081F028F4813099F0D5
:100440008230A9F008958730A9F08830C9F084304F
:10045000B1F4809180008F7D03C0809180008F7700
:1004600080938000089584B58F7784BD089584B506
:100470008F7DFBCF8091B0008F778093B00008957F
:100480008091B0008F7DF9CF1F93CF93DF93282FFA
:1004900030E0F901EA58FE4F8491F901EE59FE4F20
:1004A000D491F901E25BFE4FC491CC23A9F0162F41
:1004B00081110E941B02EC2FF0E0EE0FFF1FEC5B9E
:1004C000FE4FA591B4918FB7F894EC91111108C02B
:1004D000D095DE23DC938FBFDF91CF911F910895DC
:1004E000DE2BF8CFCF93DF9390E0FC01EE59FE4F67
:1004F0002491825B9E4FFC0184918823C9F090E097
:10050000880F991FFC01E65CFE4FA591B491FC0198
:10051000EC5BFE4FC591D49161110DC09FB7F8946B
:100520008C91209582238C938881282328839FBFD8
:10053000DF91CF910895623051F49FB7F8943C91C8
:10054000822F809583238C93E8812E2BEFCF8FB75A
:10055000F894EC912E2B2C938FBFEACFCF93DF939F
:10056000CCE3D3E060E089910E94720283E0C03462
:10057000D807C1F780917A00826080937A008091D9
:100580007A008A7F80937A0080917A008F7D8093B1
:100590007A00DF91CF9108953FB7F8948091CF0111
:1005A0009091D001A091D101B091D20126B5A89B24
:1005B00005C02F3F19F00196A11DB11D3FBFBA2FF5
:1005C000A92F982F8827BC01CD01620F711D811DB5
:1005D000911D42E0660F771F881F991F4A95D1F73A
:1005E00008958F929F92AF92BF92CF92DF92EF9237
:1005F000FF920E94CC024B015C0182E3C82ED12CF9
:10060000E12CF12C0E94CC02681979098A099B0916
:10061000683E734081059105A8F321E0C21AD10814
:10062000E108F10888EE880E83E0981EA11CB11C39
:10063000C114D104E104F10429F7FF90EF90DF9099
:10064000CF90BF90AF909F908F900895CF92DF9200
:10065000EF92FF920F931F93CF93DF93EC01898169
:1006600082FD33C085FD31C02A8130E0F901EA58AE
:10067000FE4F8491F901EE59FE4F0491F901E25BBE
:10068000FE4F1491112309F483C081110E941B02B3
:10069000E12FF0E0EE0FFF1FE05DFE4FA591B4915A
:1006A000EC910E2331E020E009F430E0832F922F0B
:1006B000398131FB222720F933FB332730F92327F7
:1006C00031E08327817082278A8B8FB7F89440911D
:1006D000CB015091CC016091CD017091CE018FBFC3
:1006E0009A892B898881992309F46EC021116CC0E5
:1006F00080FD51C0816088834E875F87688B798BCE
:100700008B89882319F1992309F18D819E81B0E0AD
:10071000A0E00E851F85288939896A017B01C01AEE
:10072000D10AE20AF30A97018601081719072A0776
:100730003B0760F0888181FD09C09B859D878A64A5
:100740008F7788834E875F87688B798B8E859F85AF
:10075000A889B989481B590B6A0B7B0B8F81988537
:10076000B0E0A0E0481759076A077B0740F08B8587
:10077000882329F08C871B86888184608883DF9199
:10078000CF911F910F91FF90EF90DF90CF90089540
:1007900090E080E08DCF0E851F85288939896A0118
:1007A0007B01C01AD10AE20AF30A0B811C8130E0F6
:1007B00020E0C016D106E206F30640F221E02B8BC2
:1007C0008062806888839CCF8E7F8883911198CFC8
:1007D000222309F4BBCF1B8A81FD03C08B858F5F69
:1007E0008B8788818D7F806188834E875F87688B48
:1007F000798B86FF04C01C861B868F7B888388814B
:1008000087FFA4CF8F77888389818160898378CFA0
:10081000CF93DF93EC0161E088810E94720261E076
:1008200089810E94720261E08A81DF91CF910C94EC
:100830007202482FE62F282F30E0863009F459C085
:1008400000F58330E1F1853009F44FC04830E0F124
:100850004E3010F1443108F063C02E50310981E070
:1008600090E0A0E0B0E004C0880F991FAA1FBB1F52
:100870002A95D2F728B1EE2309F44FC0822B88B90C
:1008800008958A30C9F18B30D9F18930F9F6809119
:1008900080008F77809380002850310981E090E0BC
:1008A000A0E0B0E004C0880F991FAA1FBB1F2A95C3
:1008B000D2F7E1112EC025B1809582232CC09091F2
:1008C000B0009F7D9093B00081E090E0A0E0B0E0A8
:1008D00004C0880F991FAA1FBB1F4A95D2F72BB1DE
:1008E000EE23A1F0822B8BB9089594B59F7D94BD22
:1008F000EBCF94B59F77FBCF809180008F7DCACFDF
:100900008091B0008F778093B000C6CF809582230E
:10091000EACF25B1822B85B9089580958223AFCF88
:1009200008950F931F93CF93DF938C01FC01D38124
:100930006D9FD02D1124D11112C060E082810E94E0
:10094000440261E0F80180810E94190461E0F8012D
:100950008181DF91CF911F910F910C94190461E077
:100960001D160CF060E0F80180810E94190461E01E
:100970001D160CF460E0F80181810E941904F80151
:10098000C2811D16CCF46D2FDD0F770B880B990BF0
:100990000E944F1D23E333E343E250E40E94041E10
:1009A0000E94171D77FF13C060E08C2FDF91CF915D
:1009B0001F910F910C9444028D2F992781950CF46F
:1009C0009095BC01072E000C880B990BE1CF6F3F6F
:1009D000710579F074F06FEF70E0C63019F168F4CA
:1009E000C33079F1C530C9F0DF91CF911F910F91DC
:1009F00008956115710589F7D7CFCA30C1F0CB30A2
:100A000041F1C93089F7809180008068809380002F
:100A10007093890060938800E7CF84B5806284BDBD
:100A200068BDE2CF84B5806884BD67BDDDCF8091AD
:100A3000800080628093800070938B0060938A00B6
:100A4000D3CF8091B00080628093B0006093B400F7
:100A5000CBCF8091B00080688093B0006093B300EA
:100A6000C3CF883008F08E508770806480937C00FC
:100A700080917A00806480937A0080917A0086FD6C
:100A8000FCCF809178009091790008950F931F9387
:100A9000CF93DF93EC010CE313E0F80180810E9417
:100AA000310599838883F80181810E9431059B83F8
:100AB0008A83F80182810E9431059D838C83F8012D
:100AC00083810E9431059F838E83DF91CF911F9197
:100AD0000F910895CF93DF93D0E0C0E0009771F0BD
:100AE000FC0101900020E9F73197AF01481B590B39
:100AF000BC018EE492E00E94F000EC0142E050E084
:100B00006DE171E08EE492E00E94F0008C0F9D1F79
:100B1000DF91CF910895CF93DF9300D000D000D024
:100B2000CDB7DEB786E291E00E94E00184E191E07A
:100B30000E94E00180E191E00E94E00180E291E00A
:100B40000E946A050AE010E080E0282F082E000CC1
:100B5000330B440B550B29833A834B835C83282E3C
:100B6000880F33088091330390E00196B8010E940A
:100B7000711E9E838D8380933303FC01ED5EFC4FD9
:100B8000148669817A818B819C810E944F1D2091FE
:100B900013033091140340911503509116030E94E2
:100BA000041E2B013C018D819E810B96B8010E9491
:100BB000711EFC01ED5EFC4F8485082E000C990B24
:100BC000B101681B790B072E000C880B990B0E9452
:100BD0004F1D20911B0330911C0340911D03509128
:100BE0001E030E94041E4B015C014FE153E05E8333
:100BF0004D83C12CD12C7601ED81FE816191FE8364
:100C0000ED83062E000C770B880B990B0E944F1D6D
:100C10009B01AC01C701B6010E94341C6B017C0131
:100C200029E233E04D815E812417350729F720E062
:100C300030E040E251E40E94A51C2091170330915E
:100C400018034091190350911A030E94041EA30136
:100C500092010E94341CA50194010E94341C6B0176
:100C60007C0120E030E040E85FEB0E94A01C87FDA3
:100C700037C020E030E040E85FE3C701B6010E94E2
:100C8000FF1D1816A4F120E030E040E85FE3C70143
:100C9000B6010E94341C20E030E048E452E40E9497
:100CA000041E0E94171D88E393E00E949104A7018F
:100CB000960160E070E080E89FE30E94331C20E032
:100CC00030E048E452E40E94041E0E94171D84E3B1
:100CD00093E00E94910481E090E00E94921342CF41
:100CE000C12CD12C90E8E92E9FEBF92ECCCFC12C52
:100CF000D12C80E8E82E8FE3F82EC5CF08EE13E064
:100D00008BEB91E00E94460580E4A82E83E0B82E8C
:100D10009BEBE92E91E0F92EE7016991799190E042
:100D200080E00E944D1D20E030E04AE754E40E943C
:100D3000041E2B013C01F5016085718522E0A20EA5
:100D4000B11C80819181681B790B90E080E00E944A
:100D50004D1D9B01AC01C301B2010E94A51C0E9464
:100D60001E1DC801861B970BFE013297893E63E06A
:100D7000960708F07AC09183808381E0C33CD8074E
:100D800061F6EBEBF1E030E020E090E080E050E055
:100D900040E0619171916438A3E07A0708F468C07B
:100DA0002F5F3F4F61E0E33CF60799F74430510570
:100DB00059F02430310541F02817390708F060C098
:100DC00081E04217530708F080E030E020E090E037
:100DD00070E060E0D0E0C0E0882351F0F70140818E
:100DE0005181F801E41BF50BAF01F70151834083FA
:100DF000F701419151917F01493C510508F042C0F2
:100E00004333510558F0C40FD51F429FF001439F53
:100E1000F00D529FF00D11246E0F7F1F2F5F3F4F7B
:100E200024303105C9F69923D9F090E080E00E9482
:100E30004D1D6B017C01BE0190E080E00E944D1DC4
:100E40009B01AC01C701B6010E94A51C26E535E552
:100E500045E852E40E94041E0E941E1D6093BA01E0
:100E600080EF90E00E9492134BCF1183008385CFD7
:100E70006536710518F44F5F5F4F94CF019692CF9E
:100E800081E0A3CF91E0BFCFEF92FF921F93CF936A
:100E9000DF9350E4E52E53E0F52ED0E0C0E0CE0124
:100EA0000E942B1C182FCE0101960E942B1C212F73
:100EB00030E0322F2227820F932F911DF70181936B
:100EC00091937F012296C830D10549F728E4E22E9C
:100ED00023E0F22ECE010E942B1C182FCE0101968A
:100EE0000E942B1C212F30E0322F2227820F932FBC
:100EF000911DF701819391937F012296C031D10515
:100F000049F7DF91CF911F91FF90EF9008950F93D4
:100F10001F93EEE4F2E0A089B18982E08C93A4856E
:100F2000B5851C92A685B7858FEC8C93108EA4890D
:100F3000B58986E08C93A289B3898C9180618C936A
:100F4000A289B3898C9188608C93A289B3898C9192
:100F500080688C930288F389E02D80818F7D808367
:100F60000E94AE020E94440710E000E021E040E051
:100F700051E066E271E082EC97E00E94F8171F9161
:100F80000F910895CF93DF93CDB7DEB7A0970FB63B
:100F9000F894DEBF0FBECDBF86E091E00E94E00175
:100FA0008CEF90E00E94E00188EF90E00E94E00169
:100FB00080E291E00E946A051E8E1D8E18A21F8E8F
:100FC00061E08BE00E94720261E08AE00E9472029E
:100FD00061E089E00E9472028CE390E09D838C8343
:100FE00084EF91E09F838E839987888780E991E0E1
:100FF0009B878A871C861D861E861F86188A198AEB
:101000001A8A1B8A1C8A8EE08B838A818F7D877F58
:101010008A8362E08EE00E9472028A818B7E8D7FDD
:101020008A838EEE90E00E94E00184EE90E00E94C0
:10103000E00180EE90E00E94E0018EE291E00E94EB
:101040006A0510E000E07E018DE1E80EF11C28E465
:10105000C22E23E0D22E38E0932E40E4A42E43E0AB
:10106000B42ECE0101960E9426038A8184FF04C01B
:10107000CE0101960E942603898182FB882480F894
:1010800082FF07C09D85913009F09FC01D868B7F30
:1010900089838A8184FF04C0CE0101960E942603C1
:1010A000898182FF94C09D85923009F090C08B7F2A
:1010B00089831D860115110509F089C086ED90E030
:1010C0000E94E0018CEC90E00E94E00188EC90E04E
:1010D0000E94E00186E391E00E946A0561E08BE0F6
:1010E0000E9419048FE190E00E949213F601892D6D
:1010F00011928A95E9F79AE0892ECE0145960E94D1
:101100004605A8E4B3E0AE014B5E5F4F2D913D91E3
:10111000FA0181919191AF012817390730F49D01AF
:1011200022503109F90191838083E416F50671F7A5
:101130000E94F1028A948110E0CF61E08AE00E946F
:1011400019048FE190E00E949213F501892D11920C
:101150008A95E9F78AE0882ECE0145960E944605D9
:10116000A0E4B3E0AE014B5E5F4F2D913D91FA01DB
:1011700081919191AF018217930730F49D01225024
:101180003109F90191838083E416F50671F70E9415
:10119000F1028A948110E0CF60E08BE00E94190494
:1011A00060E08AE00E9419048EEB90E00E94E0016A
:1011B00084EB90E00E94E00180EB90E00E94E0016F
:1011C0008BE491E00E946A054CCF812C62CF8A812A
:1011D00084FF04C0CE0101960E942603898183FF0B
:1011E00028C0877F89830115110519F586EA90E0EB
:1011F0000E94E0018CE990E00E94E00188E990E023
:101200000E94E00181E691E00E946A050E94AE0220
:101210000E94440788E393E00E94080484E393E07B
:101220000E9408041E8E1D8E18A21F8E02E010E080
:1012300018CF882009F415CF0230110549F58EE842
:1012400090E00E94E00184E890E00E94E00180E8E4
:1012500090E00E94E00189E791E00E946A05870121
:1012600022E040E850E06DE771E08EE796E00E94F2
:10127000F8178E01015E1F4F22E040E850E068E859
:1012800071E08BE895E00E94F81703E010E0E9CEEA
:101290000330110509F0E5CE86E790E00E94E001F9
:1012A0008CE690E00E94E00188E690E00E94E00178
:1012B00088E991E00E946A058F8D98A10E943C17F1
:1012C0008D8D9E8D0E943C1710E000E0CACE1F92CB
:1012D0000F920FB60F9211242F933F934F935F936A
:1012E0006F937F938F939F93AF93BF93EF93FF93EE
:1012F0008EE492E00E947101FF91EF91BF91AF9156
:101300009F918F917F916F915F914F913F912F911D
:101310000F900FBE0F901F9018951F920F920FB64F
:101320000F9211242F938F939F93EF93FF93E0914C
:101330005E02F0915F028081E0916402F0916502AB
:1013400082FD1BC09081809167028F5F8F73209117
:101350006802821741F0E0916702F0E0E25BFD4F26
:10136000958F80936702FF91EF919F918F912F91BD
:101370000F900FBE0F901F9018958081F4CF1F9291
:101380000F920FB60F9211242F933F938F939F9339
:10139000AF93BF938091CB019091CC01A091CD01EF
:1013A000B091CE013091CA0123E0230F2D3758F5BB
:1013B0000196A11DB11D2093CA018093CB0190938A
:1013C000CC01A093CD01B093CE018091CF0190913B
:1013D000D001A091D101B091D2010196A11DB11D02
:1013E0008093CF019093D001A093D101B093D2010B
:1013F000BF91AF919F918F913F912F910F900FBE11
:101400000F901F90189526E8230F0296A11DB11D7D
:10141000D2CF1F920F920FB60F9211242F933F93AA
:101420004F935F936F937F938F939F93AF93BF93EC
:10143000CF93DF93EF93FF938091C901C0910F0386
:10144000D0E087FF24C01092850010928400809124
:10145000C9018F5F8093C9018091C901082E000CDA
:10146000990B8C179D0724F48091C9018C30C4F12D
:101470008091840090918500049680349C4908F402
:101480007AC08091840090918500049676C0809106
:10149000C901082E000C990B8C179D07C4F6E0912A
:1014A000C9018E2FEE0F990BFC01EE0FFF1FE80F05
:1014B000F91FE551FD4F808186FFC9CFE091C90139
:1014C0008E2FEE0F990BFC01EE0FFF1FE80FF91F97
:1014D000E551FD4F808160E08F730E944402B7CFD9
:1014E0002091840030918500E091C9018E2FEE0F8C
:1014F000990BFC01EE0FFF1FE80FF91FE551FD4F9F
:1015000081819281820F931F90938900809388003C
:10151000E091C9018E2FEE0F990BFC01EE0FFF1F1A
:10152000E80FF91FE551FD4F808186FF11C0E09162
:10153000C9018E2FEE0F990BFC01EE0FFF1FE80F74
:10154000F91FE551FD4F808161E08F730E944402D5
:10155000FF91EF91DF91CF91BF91AF919F918F91CB
:101560007F916F915F914F913F912F910F900FBE9F
:101570000F901F90189580E49CE9909389008093C8
:1015800088008FEF8093C901E3CFE091F701F091DC
:10159000F8018081811107C08FEF9FEF9093EC01DC
:1015A0008093EB010895E091F701F091F801058037
:1015B000F681E02D80819181F1CFFC01DB010FB636
:1015C000F8940F924091F2015091F3012D913C91CA
:1015D00011972F3F320711F1818192816091F401BF
:1015E0007081761749F04817590730F01D921C9208
:1015F00081E00F900FBE0895481B590B4217530707
:10160000A8F7241B350B2D933C938091F401808324
:101610008091F2019091F3019283818380E0E9CF80
:10162000CF93DF93DC011596ED91FC910680F78155
:10163000E02DA489B5898685978520893189EC01BB
:101640003D832C83C089D1899B838A83CF010C96EB
:1016500011962D913C9112972817390721F4129673
:10166000DC93CE931197158A148A2C9121502C93D8
:101670002091EF01211157C0A285B3858481958106
:1016800026813781EC013D832C83C681D7819B83E2
:101690008A83CF01029611962D913C9112972817BB
:1016A000390721F41296DC93CE9311971386128694
:1016B0002C9121502C93C68920914A022C1710F4AA
:1016C000C0934A0229E02C9FE0011124CA5DDD4F3E
:1016D0000980DA81C02DD583C4834C815D81578315
:1016E0004683AC81BD8113969C938E9312979D8304
:1016F0008C83A689A29FD0011124AA5DBD4FB38718
:10170000A2878C918F5F8C93A091B601B091B701A5
:10171000968956968C91891730F581E08093C501A2
:10172000DF91CF910895A0910C02B0910D02B7877F
:10173000A68714962D913C911597318B208B14968A
:10174000CD91DC9115979B838A8315969C938E93FC
:1017500014978BE092E0958B848B80910B028F5FC6
:1017600080930B02D1CF80E0DBCF0FB6F8940F92BD
:101770008091F2019091F3010F900FBE0895809136
:10178000EF018F5F8093EF0108950FB6F8940F92E9
:10179000FC01928D0F900FBE81E0911180E00895C1
:1017A000EF92FF920F931F93CF93DF93EC010FB64D
:1017B000F8940F921E8D7C0181E1E80EF11C01E08E
:1017C0001116D4F08FEF8E8F0F900FBE0FB6F894D6
:1017D0000F921D8D7E0188E0E80EF11C01E01116CC
:1017E000B4F08FEF8D8F0F900FBEDF91CF911F91CF
:1017F0000F91FF90EF9008958989882319F3C7010D
:101800000E94100B81110093C5011150D9CF88851A
:10181000882339F3C7010E94100B81110093C50181
:101820001150DDCFCF93DF93FC01A085B18582817C
:10183000938124813581EC013D832C83C481D58142
:101840009B838A8311968D919C9112978E179F0787
:1018500021F41296DC93CE931197118610868C9109
:1018600081508C938C91DF91CF9108950F931F93AA
:10187000CF93DF938C01FB0180819181D801139676
:101880008F3F9807F1F4E801AF81B88512968D91EA
:101890009C91139793838283EC01FD83EC83B58342
:1018A000A4831396FC93EE93129711870087F80197
:1018B00080818F5F8083DF91CF911F910F91089579
:1018C000D90112962D913C911397E90148815981D4
:1018D00084179507A8F7DACFFC0173836283918799
:1018E00080874617570790F0421B530B84859585D8
:1018F00048175907C8F4BF016E5F7F4F8091D3012D
:101900009091D4010E94360C80E00895421753074D
:1019100018F46217730740F4BF016E5F7F4F809128
:10192000D5019091D601EECF81E00895FF920F93FB
:101930001F93CF93DF93EC01F62E0091F2011091EB
:10194000F3018091B6019091B70102960E94120CAA
:10195000CF3FDC07E9F5FF20D9F1E091FA01F091E2
:10196000FB01A091B601B091B7011596FC93EE93DF
:101970001497A091B601B091B70184819581179613
:101980009C938E9316978091B6019091B701A48194
:10199000B581029613969C938E9312978091B6010F
:1019A0009091B701029695838483E091B601F091FE
:1019B000B70189EF91E0938782878091F9018F5F6A
:1019C0008093F901DF91CF911F910F91FF900895BE
:1019D000C00FD11FE091B601F091B701D383C2834C
:1019E0006091B6017091B701C017D10768F480917A
:1019F000F5019091F6016E5F7F4FDF91CF911F91BE
:101A00000F91FF900C94360C8091F7019091F801A2
:101A10006E5F7F4F0E94360C8091EB019091EC013C
:101A2000C817D90778F6D093EC01C093EB01CACF61
:101A3000FC010396928381832FEF3FEF348323834E
:101A40009683858390878783108208950F920FB6BF
:101A5000F8940F921F9211242F923F924F925F920F
:101A60006F927F928F929F92AF92BF92CF92DF92AE
:101A7000EF92FF920F931F932F933F934F935F9398
:101A80006F937F938F939F93AF93BF93CF93DF9386
:101A9000EF93FF93A091B601B091B7010DB60D92EF
:101AA0000EB60D9213BE8091EF018111FAC08091A4
:101AB000F2019091F30101969093F3018093F2016A
:101AC000009781F52091F7013091F8014091F501DF
:101AD0005091F6015093F8014093F7013093F601CD
:101AE0002093F5012091F4012F5F2093F401E09100
:101AF000F701F091F8012081211107C02FEF3FEF8E
:101B00003093EC012093EB010DC0E091F701F091CF
:101B1000F8010580F681E02D208131813093EC01C0
:101B20002093EB012091EB013091EC018217930798
:101B300020F420E0A2C021E003C020E039E0D32E51
:101B4000E091F701F091F8013081311107C08FEF7A
:101B50009FEF9093EC018093EB018FC0E091F70130
:101B6000F091F8010580F681E02D0680F781E02DE7
:101B7000428153818417950728F45093EC014093D8
:101B8000EB017BC0A285B385448155816681778155
:101B9000EA017D836C8366817781EB015B834A83F5
:101BA000AF014E5F5F4F11960D911C911297041774
:101BB000150721F412967C936E9311971386128663
:101BC0003C9131503C93A489B5891097F9F0668512
:101BD000778500891189EB011D830C8300891189A8
:101BE000E8017B836A831196ED90FC901297BF0108
:101BF000645F7F4FE616F70621F412961C930E934E
:101C00001197158A148A3C9131503C93A6893091E2
:101C10004A023A1710F4A0934A02DA9ED001112426
:101C2000AA5DBD4F11960D90BC91A02DB583A483E4
:101C300014966D917C9115977783668314966D91B8
:101C40007C911597EB015B834A8315965C934E93C9
:101C5000149746894D9DD0011124AA5DBD4FB387CD
:101C6000A2873C913F5F3C93E091B601F091B701B0
:101C70003689431708F05FCF63CFE091B601F0914A
:101C8000B701E689D9E0ED9FF0011124EA5DFD4F2F
:101C90008081823008F021E08091C50181110EC061
:101CA0000AC08091C3019091C40101969093C40130
:101CB0008093C30178C1222309F475C18091EF019B
:101CC000882321F081E08093C5016DC11092C50188
:101CD000E091B601F091B7010788F08DE02D808189
:101CE0009181A281B381853A954AA54AB54AE1F42A
:101CF00084819581A681B781853A954AA54AB54ADE
:101D000099F480859185A285B385853A954AA54A3F
:101D1000B54A51F484859585A685B785853A954A57
:101D2000A54AB54A09F406C1E091B601F091B701A0
:101D300079968091B6019091B701309731F4ADE179
:101D4000B1E04FE151E071E07EC0DF010D90002075
:101D5000E9F7AD014150510971E0E417F50779F356
:101D60006191709366029091690280916A02981362
:101D700018C0A0915E02B0915F028C9185FF11C0E6
:101D80009FB7F894A0916402B09165026C93A09102
:101D90005E02B0915F028C91837080648C939FBFD0
:101DA000DCCF8091690290E001968F739927C82F4C
:101DB000A0915E02B0915F0220916A02C21330C00E
:101DC0000FB607FCF9CF2C9125FFF6CFA0916A0240
:101DD000B0E0A555BD4F1C9120916A0230E02F5F05
:101DE0003F4F2F73332720936A02A0916402B09172
:101DF00065021C93A0915E02B0915F022C9123704A
:101E000020642C933091690220916A023213D0CF62
:101E1000A0916002B09161022C912F7D2C93C8CFCC
:101E2000A0916902B0E0A555BD4F6C939FB7F8949F
:101E300080936902A0916002B09161028C918062EE
:101E40008C939FBF8ACF4A175B0709F473C06D91CB
:101E5000709366029091690280916A02981318C08B
:101E6000E0915E02F0915F02808185FF11C09FB713
:101E7000F894E0916402F09165026083E0915E0263
:101E8000F0915F0280818370806480839FBFDBCF8D
:101E90008091690290E001968F739927C82FE09195
:101EA0005E02F0915F0220916A02C21330C00FB649
:101EB00007FCF9CF208125FFF6CFE0916A02F0E020
:101EC000E555FD4F108120916A0230E02F5F3F4FB2
:101ED0002F73332720936A02E0916402F091650228
:101EE0001083E0915E02F0915F02208123702064F4
:101EF00020833091690220916A023213D0CFE091A1
:101F00006002F091610220812F7D2083C8CFE09193
:101F10006902F0E0E555FD4F60839FB7F894809328
:101F20006902E0916002F0916102808180628083A9
:101F30009FBF89CF20914A0289E001C02150422FE2
:101F400050E0849FF001859FF00D1124EA5DFD4F64
:101F50009081992399F3A181B28112960D90BC9141
:101F6000A02DB283A183289FC0011124875D9D4FBE
:101F7000A817B90729F412968D919C9192838183B9
:101F800089E0849FF001859FF00D1124EA5DFD4FEB
:101F90000180F281E02D868197819093B701809333
:101FA000B60120934A02A091B601B091B701CD913C
:101FB000CDBFDD91DEBFFF91EF91DF91CF91BF915A
:101FC000AF919F918F917F916F915F914F913F91D1
:101FD0002F911F910F91FF90EF90DF90CF90BF90C6
:101FE000AF909F908F907F906F905F904F903F90B9
:101FF0002F901F900F900FBE0F9008950F920FB665
:10200000F8940F921F9211242F923F924F925F9259
:102010006F927F928F929F92AF92BF92CF92DF92F8
:10202000EF92FF920F931F932F933F934F935F93E2
:102030006F937F938F939F93AF93BF93CF93DF93D0
:10204000EF93FF93A091B601B091B7010DB60D9239
:102050000EB60D928091EF01882321F081E08093EC
:10206000C5016DC11092C501E091B601F091B701B3
:102070000788F08DE02D80819181A281B381853A1E
:10208000954AA54AB54AE1F484819581A681B78134
:10209000853A954AA54AB54A99F480859185A285E5
:1020A000B385853A954AA54AB54A51F48485958504
:1020B000A685B785853A954AA54AB54A09F406C169
:1020C000E091B601F091B70179968091B6019091B7
:1020D000B701309731F4ADE1B1E04FE151E071E08B
:1020E0007EC0DF010D900020E9F7AD01415051099C
:1020F00071E0E417F50779F36191709366029091AE
:10210000690280916A02981318C0A0915E02B09192
:102110005F028C9185FF11C09FB7F894A091640273
:10212000B09165026C93A0915E02B0915F028C91B8
:10213000837080648C939FBFDCCF8091690290E0B4
:1021400001968F739927C82FA0915E02B0915F020C
:1021500020916A02C21330C00FB607FCF9CF2C9150
:1021600025FFF6CFA0916A02B0E0A555BD4FDC91E6
:1021700020916A0230E02F5F3F4F2F733327209367
:102180006A02A0916402B0916502DC93A0915E02A4
:10219000B0915F022C91237020642C9330916902DE
:1021A00020916A023213D0CFA0916002B0916102F7
:1021B0002C912F7D2C93C8CFA0916902B0E0A5553A
:1021C000BD4F6C939FB7F89480936902A091600211
:1021D000B09161028C9180628C939FBF8ACF4A1725
:1021E0005B0709F473C06D91709366029091690268
:1021F00080916A02981318C0E0915E02F0915F022C
:10220000808185FF11C09FB7F894E0916402F0913E
:1022100065026083E0915E02F0915F0280818370CD
:10222000806480839FBFDBCF8091690290E001963C
:102230008F739927C82FE0915E02F0915F02209181
:102240006A02C21330C00FB607FCF9CF208125FF08
:10225000F6CFE0916A02F0E0E555FD4FD081209184
:102260006A0230E02F5F3F4F2F73332720936A02BB
:10227000E0916402F0916502D083E0915E02F091FA
:102280005F022081237020642083309169022091B5
:102290006A023213D0CFE0916002F0916102208196
:1022A0002F7D2083C8CFE0916902F0E0E555FD4F16
:1022B00060839FB7F89480936902E0916002F09187
:1022C00061028081806280839FBF89CF20914A0212
:1022D00089E001C02150422F50E0849FF001859F8A
:1022E000F00D1124EA5DFD4F9081992399F3A181AE
:1022F000B28112960D90BC91A02DB283A183289F2C
:10230000C0011124875D9D4FA817B90729F41296C3
:102310008D919C919283818389E0849FF001859FB8
:10232000F00D1124EA5DFD4F0180F281E02D8681E0
:1023300097819093B7018093B60120934A02A091B0
:10234000B601B091B701CD91CDBFDD91DEBFFF9158
:10235000EF91DF91CF91BF91AF919F918F917F913D
:102360006F915F914F913F912F911F910F91FF902E
:10237000EF90DF90CF90BF90AF909F908F907F9025
:102380006F905F904F903F902F901F900F900FBED7
:102390000F9008958F929F92BF92CF92DF92EF920B
:1023A000FF920F931F93CF93DF930FB6F8940F9282
:1023B0008091EF0181508093EF018091EF0188239C
:1023C00079F080E00F900FBEDF91CF911F910F91B8
:1023D000FF90EF90DF90CF90BF909F908F900895E7
:1023E00080914D02882369F3E0901002F090110271
:1023F000F0E0E0E039E041E080910B0281115EC045
:10240000EF2B11F00E94C50AE090C301F090C401C7
:10241000E114F10409F47DC189E0D82ECC24C394E1
:102420000FEF1FEF8091EF01811161C1C091F201A7
:10243000D091F3014E018FEF881A980A9092F30120
:102440008092F20181149104B9F48091F701909186
:10245000F8012091F5013091F6013093F8012093B5
:10246000F7019093F6018093F5018091F4018F5F5D
:102470008093F4010E94C50A8091EB019091EC01D8
:10248000B12C8816990608F026C1E091B601F091AA
:10249000B701E689DE9EF0011124EA5DFD4F8081DF
:1024A000823010F0BB24B3948091C501811103C028
:1024B000BB2009F425C1C092C50122C1D7011696DF
:1024C000ED91FC91A489B58966857785808991898C
:1024D000EB019D838C8380899189EC017B836A83E6
:1024E000BF01645F7F4F11960D911C9112970617E3
:1024F000170721F412969C938E931197158A148ACC
:102500008C9181508C93A285B3858481958166815D
:102510007781EC017D836C8366817781EB019B83FE
:102520008A83CF01029611960D911C91129708177C
:10253000190721F412967C936E93119713861286D5
:102540002C9121502C93A68920914A022A1710F42D
:10255000A0934A023A9FD0011124AA5DBD4F119663
:102560000D90BC91A02DB583A48314966D917C91A0
:1025700015977783668314966D917C911597EB017F
:102580009B838A8315969C938E9314979689939F29
:10259000D0011124AA5DBD4FB387A2878C918F5FB4
:1025A0008C93A091B601B091B70156968C91981773
:1025B00008F422CF4093C5011FCFE091F701F091BD
:1025C000F8010580F681E02D0680F781E02D8281FB
:1025D00093818816990628F49093EC018093EB017F
:1025E00054CFC285D3858481958126813781DC01D2
:1025F00015963C932E93149726813781D901139613
:102600009C938E931297CF01029649815A81481765
:10261000590711F43A8329831386128628812150A1
:102620002883A489B5891097F9F0268537854089D4
:102630005189E9015D834C8340895189EA013B83DB
:102640002A8311966D917C9112979F01245F3F4FD1
:102650006217730721F412965C934E931197158AB3
:10266000148A2C9121502C93A68920914A022A1772
:1026700010F4A0934A02DA9ED0011124AA5DBD4F46
:1026800011960D90BC91A02DB583A48314962D9125
:102690003C9115973783268314962D913C9115977D
:1026A000E9019B838A8315969C938E931497968950
:1026B0009D9DD0011124AA5DBD4FB387A2878C9147
:1026C0008F5F8C93E091B601F091B70186899817DE
:1026D00010F0BB24B394E091F701F091F8018081F0
:1026E00081116BCF1093EC010093EB01CECE809162
:1026F000C3019091C40101969093C4018093C301DA
:10270000D1E0ED1AF10809F08DCE1092C4011092BB
:10271000C3018091C501882309F453CE0E94FE0FA6
:1027200081E050CECF93DF93EC010E94BF0B60E0BD
:10273000CE010E94960C0E94CA11811102C00E9413
:10274000FE0FDF91CF910895AF92BF92CF92DF92AB
:10275000EF92FF920F931F93CF93DF9300D000D09F
:102760001F92CDB7DEB78C017B011D821C8280E0F9
:10277000680198E0C90ED11C0FB6F8940F92D801E9
:102780005A962C915A975B969C915B97291708F063
:10279000B0C05A96DC905A975C964C915C97411168
:1027A0008DC08D919C91892B11F080E00AC0F801B9
:1027B000E480F580E114F10439F580E0F801158238
:1027C0001482D394D8015A96DC925A9751969C91D0
:1027D000992321F0C80141960E94100B81110E949B
:1027E000FE0F0F900FBE81E00F900F900F900F9093
:1027F0000F90DF91CF911F910F91FF90EF90DF909D
:10280000CF90BF90AF900895D70192968C919297F8
:10281000815092968C93929756962C9156979196BA
:102820009C91291751F28111C8CF5701B2E0AB0E2C
:10283000B11CC5010E94120CF70181A1868B482FA3
:1028400050E024E030E0241B350B3587248790913D
:102850004A02981710F480934A0289E0849FD001BD
:10286000859FB00D1124AA5DBD4F11960D90BC91AE
:10287000A02DF701B583A48314962D913C91159753
:10288000378326831496ED91FC911597B382A2822B
:102890001596BC92AE921497D7015696EC91569726
:1028A000E89FF0011124EA5DFD4F1B96FC93EE9327
:1028B0001A9780818F5F808381E080CF50E0B701DD
:1028C00012968D919C910E949F1EF801848D228109
:1028D0003381820F932F911D9383828324813581CD
:1028E0008217930708F461CF80819181938382835B
:1028F0005CCF2C813D81232B21F40F900FBE80E013
:1029000073CF811109C08091F40189838091F20114
:102910009091F3019B838A830F900FBE0E94BF0B9F
:102920000FB6F8940F92F801858D8F3F09F4158E3C
:10293000D8015E968C915E978F3F11F45E961C9243
:102940000F900FBEBE016C5F7F4FCE0101960E94BB
:10295000DD0A81112AC00FB6F8940F92F801928D0A
:10296000838D0F900FBE98131AC0AC80BD8060910C
:10297000B6017091B701645F7F4FC6010E94360CAB
:1029800061E0C5010E94960CC8010E94D00B0E9414
:10299000CA11811102C00E94FE0F81E0EDCEC80174
:1029A0000E94D00B0E94CA11F8CFC8010E94D00B20
:1029B0000E94CA11A4CFCF93DF9300D000D01F9202
:1029C000CDB7DEB79C018091F0019091F1010097A5
:1029D000B9F019827B836A833D832C8320914C025A
:1029E000BE016F5F7F4F21112091EF010E94A41360
:1029F0000F900F900F900F900F90DF91CF9108954F
:102A000080E0F6CFEF92FF920F931F93CF93DF9367
:102A1000E091D501F091D6018081811113C08091A0
:102A2000D3019091D4019093D6018093D501F09376
:102A3000D401E093D301DF91CF911F910F91FF90CB
:102A4000EF9008950580F681E02D00811181C68107
:102A5000D7817E0182E0E80EF11CC7010E94120CB2
:102A6000E889F989CE0109958A8982FFD1CF2C8521
:102A70003D85200F311F0217130760F48091D501A7
:102A80009091D6013B832A83D987C887B7010E94DA
:102A9000360CBECFB801CE010E94DB14B9CFCF9364
:102AA000DF93009751F0EC010E94BF0BCE010E9412
:102AB000A21BDF91CF910C94CA11DF91CF910895A1
:102AC000CF93DF93CDB7DEB72A970FB6F894DEBF6A
:102AD0000FBECDBF0091D5011091D601D801BC9099
:102AE000F12CE12CBB2029F01596ED91FC91E080B2
:102AF000F1800E94BF0B0E94B50B6C018091C70151
:102B00009091C801C816D90608F07BC00E94021532
:102B1000D092C801C092C7010E94CA110091F00171
:102B20001091F1011A86198680E06801B1E1CB0E9F
:102B3000D11C0FB6F8940F92F801F28CFF2009F423
:102B40003AC1448D4423C1F050E086819781840FBF
:102B5000951F97838683248135818217930720F000
:102B60008081918197838683D80116966D917C919F
:102B7000CE0101960E949F1EFA94F801F28E808584
:102B8000882339F0C80108960E94100B81110E9419
:102B9000FE0F0F900FBED980D7FCC0CF0C811D81D6
:102BA000F80182859385892B21F0C80102960E9445
:102BB000120C0E94B50B7C018091C7019091C80155
:102BC000E816F90610F40E940215F092C801E0928E
:102BD000C701F9E0FD1508F4A1CFED2DDD0CFF0BC9
:102BE000E950FA4ED80152968C910C94851E9E168F
:102BF0009E169E16D616C116D0169E169E16D61670
:102C0000C116D092C801C092C701BB2061F1CE1499
:102C1000DF0480F10E94CA11D8011596ED91FC9154
:102C200006811781C80102960E94120CF801828960
:102C300082FF16C0648575856E0D7F1D9701A60104
:102C4000C8010E946C0C882321F0B701C8010E94C2
:102C5000DB14D8015096ED91FC91C80109955ECF27
:102C60008E7F828BF6CFE091D301F091D4018081E9
:102C700061E0811160E00091F0011091F1010FB667
:102C8000F8940F92F801858D8F3F09F4158ED801C5
:102C90005E968C915E978F3F11F45E961C920F901A
:102CA0000FBEF801828D81113FC00288F389E02DAB
:102CB000A091B601B091B7011F96FC93EE931E97B9
:102CC000A091B601B091B7018481958151969C93F2
:102CD0008E9350978091B6019091B701A481B581F0
:102CE0000C9613969C938E9312978091B6019091B7
:102CF000B7010C9695838483E091B601F091B701FA
:102D0000C8014196958B848BD80151968C9151972F
:102D10008F5F51968C93C7018C199D09662311F022
:102D20008FEF9FEF0E94960CC8010E94D00B0E946B
:102D3000CA118111F3CE0E94FE0FF0CE8160F8011E
:102D4000828BCA80DB80648575856C0D7D1D960144
:102D5000A701C8010E946C0C882309F4DFCED801BA
:102D60005096ED91FC91C8010995F801828982FF86
:102D7000D5CE648575856C0D7D1DC8010E94DB1460
:102D8000CDCE8160F801828B6A817B8175876487F3
:102D90006E0D7F1D9701A701C8010E946C0CBECE6D
:102DA00081FD04C0C8010E944F15B8CE8E7FD801A6
:102DB00052968C93B3CE29853A85232B19F40F9024
:102DC0000FBE88CE811109C08091F4018E8380915D
:102DD000F2019091F30198878F830F900FBE0E94AC
:102DE000BF0B0FB6F8940F92D8015D968C915D974A
:102DF0008F3F11F45D961C92F801868D8F3F09F488
:102E0000168E0F900FBEBE01675F7F4FCE010696F4
:102E10000E94DD0A811125C0C8010E94C50B8823CC
:102E2000D1F0E984FA846091B6017091B701645FD2
:102E30007F4FC6010E94360C61E0C7010E94960CCC
:102E4000C8010E94D00B0E94CA11811102C00E94C9
:102E5000FE0F81E06ECEC8010E94D00B0E94CA1105
:102E6000F8CFC8010E94D00B0E94CA11C8010E946D
:102E7000C50B882371F32ECE0F931F93CF93DF934F
:102E8000EC010FB6F8940F92892B21F4C091B60192
:102E9000D091B7018E010E5F1F4FC8010E94120C26
:102EA0008C899D89892B21F0CE010C960E94120CF1
:102EB00080914B028F5F80934B028091B60190917D
:102EC000B7018C179D07A1F5E0910302F091040270
:102ED000FD83EC83848195819F838E83A481B5815A
:102EE00013961C930E9312971583048382E092E04D
:102EF0009B878A87809102028F5F80930202809174
:102F0000C6018F5F8093C6010F900FBE80914C0267
:102F1000882349F08091B6019091B7018C179D07E5
:102F200011F40E94FE0FDF91CF911F910F91089530
:102F300080914D02815080934D028F89988D0E941F
:102F40004F15CE010E944F150E94C50ADDCF00E04B
:102F500010E08091C60181110CC080912602823060
:102F600010F00E94FE0F0115110599F30E946401F3
:102F7000F0CF0FB6F8940F92E0910702F09108029B
:102F8000C681D781CE0102960E94120C80914D021B
:102F9000815080934D028091C60181508093C6017B
:102FA0000F900FBE8F89988D0E944F15CE010E9401
:102FB0004F15CFCFCF93DF93EC010E94BF0BCE0113
:102FC0000E94061BEC010E94CA11209769F4259A01
:102FD0002D9A2FEF80E792E0215080409040E1F75A
:102FE00000C000001D9AF5CFCE01DF91CF9108956A
:102FF0007F928F929F92AF92BF92CF92DF92EF9289
:10300000FF920F931F93CF93DF93982EA92E762EC6
:10301000872E7A01B22ECA010E94DA176C01892B21
:1030200009F4F2C088E290E00E94DA17EC01892BE3
:1030300009F4E7C0D88ECF8AA70165EA70E0C6011F
:103040000E94A81E81E0E81AF108EF89F88DEE0DC4
:10305000FF1D672D782DCE0149969B01285F3F4FBC
:10306000DB014D91BD01DC014D93CD01AB01415020
:103070005109DA014C91442319F06217730781F763
:1030800018A2BE8AB9A21AA21B861A861D8A1C8A99
:10309000D987C88784E090E08B1991099D878C8738
:1030A000DB8BCA8B84E09E012D5D3F4FD9011D92C1
:1030B0008A95E9F71FA29082DF011197AC921197D0
:1030C0001C92119780E88C9311971C9257971C9231
:1030D00011971C92B397F983E8830115110519F034
:1030E000F801D183C0830FB6F8940F9280914D02FE
:1030F0008F5F80934D028091B6019091B701892B2B
:1031000009F091C0D093B701C093B60180914D02F0
:10311000813081F586E292E00E94180D8FE292E004
:103120000E94180D88E392E00E94180D81E492E05D
:103130000E94180D8DE192E00E94180D84E192E04A
:103140000E94180D8BE092E00E94180D82E092E040
:103150000E94180D89EF91E00E94180D8DE192E018
:103160009093F8018093F70184E192E09093F60147
:103170008093F50180914B028F5F80934B02AE8963
:1031800080914A028A1710F4A0934A0229E02A9FEC
:10319000D0011124AA5DBD4F11960D90BC91A02DB8
:1031A000BD83AC8314968D919C9115979F838E83DC
:1031B0001496ED91FC911597CE010296938382832C
:1031C00015969C938E931497EE89E29FF00111243B
:1031D000EA5DFD4FFB87EA8780818F5F80830F90D8
:1031E0000FBE80914C02882351F0E091B601F0911E
:1031F000B70196898E89981710F40E94FE0F81E01E
:1032000004C0C6010E944F158FEFDF91CF911F912F
:103210000F91FF90EF90DF90CF90BF90AF909F9075
:103220008F907F90089580914C028111A3CFE091FF
:10323000B601F091B70196898E89891708F49ACF63
:10324000D093B701C093B60195CF0E94260D189573
:10325000109251021092500288EE93E0A0E0B0E08C
:103260008093520290935302A0935402B09355025C
:103270008FE091E090934F0280934E0285EC90E0B6
:1032800090935B0280935A0284EC90E090935D02ED
:1032900080935C0280EC90E090935F0280935E02EA
:1032A00081EC90E0909361028093600282EC90E068
:1032B000909363028093620286EC90E090936502A3
:1032C0008093640210926702109268021092690261
:1032D00010926A0280910F038C3008F076C091E062
:1032E000980F90930F038093100390E0FC01EE0F72
:1032F000FF1FE80FF91FE551FD4F88EB9BE092831C
:10330000818387E08093380398E09093390386E0C7
:1033100080933A0321E020933B0324E0209334037D
:1033200022E02093350325E0209336032FEF2093EE
:1033300037032093330340E050E060E87FE340939D
:10334000130350931403609315037093160340E026
:1033500050E060E07FE340931703509318036093BD
:10336000190370931A0340931B0350931C0360933B
:103370001D0370931E03EFE1F3E024E1DF011D92D2
:103380002A95E9F7E0E4F3E0DF011D929A95E9F769
:10339000EAE4F3E0DF011D928A95E9F780E094E02A
:1033A00090934903809348038091010180933C03EB
:1033B0008091020180933D038091030180933E033D
:1033C0008091040180933F0308958FEF8093100351
:1033D00098CF789484B5826084BD84B5816084BDC3
:1033E00085B5826085BD85B5816085BD80916E00A3
:1033F000816080936E0010928100809181008260D4
:103400008093810080918100816080938100809110
:1034100080008160809380008091B10084608093FF
:10342000B1008091B00081608093B00080917A00FB
:10343000846080937A0080917A00826080937A0021
:1034400080917A00816080937A0080917A00806810
:1034500080937A001092C1002091090130910A01F5
:103460008FEF98E0821B930B9093060180930501E8
:103470000E9487070DEE11E020E040EC50E069EA81
:1034800071E087EA97E10E94F817813009F0B3C034
:103490000FB6F8940F928091F0019091F101892B71
:1034A00009F04FC080EE91E00E94180D87ED91E089
:1034B0000E94180D80EE91E09093D6018093D50183
:1034C00087ED91E09093D4018093D30181E590E062
:1034D0000E94DA17EC01009781F14F969983888357
:1034E0008AE08B8F85E08C8F0FB6F8940F928881DD
:1034F00099812B8D4C8DBC01249F600D711D112471
:103500007D836C831A8E9B838A832150330B429F69
:10351000B001439F700D1124860F971F9F838E83E8
:103520008FEF8D8F8E8FCE0108960E94180DCE01E1
:1035300041960E94180D0F900FBED093F101C093D9
:10354000F0010F900FBE8091F0019091F101892B55
:1035500009F451C009EE11E023E045E550E06EEAC0
:1035600071E080E695E10E94F817813009F043C0D0
:10357000F8942FEF3FEF3093EC012093EB01809311
:103580004C021092F3011092F201A89588E190ECA0
:103590000FB6F894A895809360000FBE90936000DA
:1035A000A091B601B091B701CD91CDBFDD91DEBF45
:1035B000FF91EF91DF91CF91BF91AF919F918F914B
:1035C0007F916F915F914F913F912F911F910F913B
:1035D000FF90EF90DF90CF90BF90AF909F908F9033
:1035E0007F906F905F904F903F902F901F900F9023
:1035F0000FBE0F900895809100010E948707C0E0E0
:10360000D0E02097F1F30E946401FBCF0F931F934A
:10361000CF93DF938230910510F482E090E0E09147
:103620005203F091530330E020E0B0E0A0E0309787
:1036300099F42115310509F44AC0281B390B2430AF
:103640003105D8F58A819B816115710589F1FB01EE
:1036500093838283FE0111C04081518102811381D5
:1036600048175907E0F04817590799F4109761F087
:1036700012960C93129713961C933296CF01DF91FA
:10368000CF911F910F91089500935203109353030C
:10369000F4CF2115310551F04217530738F0A90135
:1036A000DB019A01BD01DF01F801C1CFEF01F9CFC4
:1036B0009093530380935203CDCFFE01E20FF31F8B
:1036C000819391932250310939832883D7CF209158
:1036D000500330915103232B41F420910701309185
:1036E000080130935103209350032091050130913C
:1036F00006012115310541F42DB73EB7409109016E
:1037000050910A01241B350BE0915003F0915103B5
:10371000E217F307A0F42E1B3F0B2817390778F0A8
:10372000AC014E5F5F4F2417350748F04E0F5F1F07
:103730005093510340935003819391939FCFF0E0B6
:10374000E0E09CCFCF93DF930097E9F0FC01329744
:1037500013821282A0915203B0915303ED0130E025
:1037600020E01097A1F420813181820F931F2091D6
:103770005003309151032817390709F061C0F093C5
:103780005103E0935003DF91CF910895EA01CE17E2
:10379000DF07E8F54A815B819E0141155105B1F7CC
:1037A000E901FB83EA8349915991C40FD51FEC17B6
:1037B000FD0761F4808191810296840F951FE901D4
:1037C00099838883828193819B838A83F0E0E0E000
:1037D00012968D919C9113970097B9F52D913C917C
:1037E0001197CD010296820F931F209150033091C3
:1037F00051032817390739F6309751F510925303C2
:1038000010925203B0935103A0935003BCCFD383C3
:10381000C28340815181840F951FC817D90761F475
:103820004E5F5F4F88819981480F591F51834083B4
:103830008A819B81938382832115310509F0B0CF62
:10384000F0935303E09352039ECFFD01DC01C0CF00
:1038500013821282D7CFF999FECF92BD81BDF89A1B
:10386000992780B508955058BB27AA270E944B1C62
:103870000C94C51D0E94B71D38F00E94BE1D20F09B
:1038800039F49F3F19F426F40C94B41D0EF4E0951E
:10389000E7FB0C94AE1DE92F0E94D61D58F3BA1712
:1038A000620773078407950720F079F4A6F50C9456
:1038B000F81D0EF4E0950B2EBA2FA02D0B01B901C7
:1038C00090010C01CA01A0011124FF27591B99F096
:1038D000593F50F4503E68F11A16F040A22F232FA2
:1038E000342F4427585FF3CF469537952795A795F2
:1038F000F0405395C9F77EF41F16BA0B620B730B99
:10390000840BBAF09150A1F0FF0FBB1F661F771F09
:10391000881FC2F70EC0BA0F621F731F841F48F4BE
:10392000879577956795B795F7959E3F08F0B0CF47
:103930009395880F08F09927EE0F9795879508952E
:103940000E948A1D08F481E008950E94B91C0C941D
:10395000C51D0E94BE1D58F00E94B71D40F029F4FD
:103960005F3F29F00C94AE1D51110C94F91D0C947D
:10397000B41D0E94D61D68F39923B1F3552391F32A
:10398000951B550BBB27AA2762177307840738F0CE
:103990009F5F5F4F220F331F441FAA1FA9F335D02B
:1039A0000E2E3AF0E0E832D091505040E695001CDF
:1039B000CAF72BD0FE2F29D0660F771F881FBB1F99
:1039C000261737074807AB07B0E809F0BB0B802D77
:1039D000BF01FF2793585F4F3AF09E3F510578F0A3
:1039E0000C94AE1D0C94F91D5F3FE4F3983ED4F3A4
:1039F000869577956795B795F7959F5FC9F7880F77
:103A0000911D9695879597F90895E1E0660F771FC8
:103A1000881FBB1F621773078407BA0720F0621B59
:103A2000730B840BBA0BEE1F88F7E09508950E9484
:103A30001E1D6894B1110C94F91D08950E94DE1D9D
:103A400088F09F5798F0B92F9927B751B0F0E1F05F
:103A5000660F771F881F991F1AF0BA95C9F714C00F
:103A6000B13091F00E94F81DB1E008950C94F81D5A
:103A7000672F782F8827B85F39F0B93FCCF3869548
:103A800077956795B395D9F73EF4909580957095A5
:103A900061957F4F8F4F9F4F0895E89409C097FB22
:103AA0003EF490958095709561957F4F8F4F9F4F15
:103AB0009923A9F0F92F96E9BB279395F695879559
:103AC00077956795B795F111F8CFFAF4BB0F11F41C
:103AD00060FF1BC06F5F7F4F8F4F9F4F16C08823C3
:103AE00011F096E911C0772321F09EE8872F762FF9
:103AF00005C0662371F096E8862F70E060E02AF03A
:103B00009A95660F771F881FDAF7880F9695879525
:103B100097F90895990F0008550FAA0BE0E8FEEFFA
:103B200016161706E807F907C0F012161306E40781
:103B3000F50798F0621B730B840B950B39F40A267A
:103B400061F0232B242B252B21F408950A2609F458
:103B5000A140A6958FEF811D811D089597F99F675C
:103B600080E870E060E008959FEF80EC0895002405
:103B70000A941616170618060906089500240A94D2
:103B800012161306140605060895092E0394000C58
:103B900011F4882352F0BB0F40F4BF2B11F460FFE7
:103BA00004C06F5F7F4F8F4F9F4F089557FD905810
:103BB000440F551F59F05F3F71F04795880F97FBF1
:103BC000991F61F09F3F79F08795089512161306AB
:103BD0001406551FF2CF4695F1DF08C016161706DA
:103BE0001806991FF1CF869571056105089408950F
:103BF000E894BB2766277727CB0197F908950E94A1
:103C00008A1D08F48FEF08950E94171E0C94C51D9D
:103C10000E94B71D38F00E94BE1D20F0952311F0C0
:103C20000C94AE1D0C94B41D11240C94F91D0E942B
:103C3000D61D70F3959FC1F3950F50E0551F629FFD
:103C4000F001729FBB27F00DB11D639FAA27F00DF5
:103C5000B11DAA1F649F6627B00DA11D661F829F1C
:103C60002227B00DA11D621F739FB00DA11D621F01
:103C7000839FA00D611D221F749F3327A00D611D1E
:103C8000231F849F600D211D822F762F6A2F112400
:103C90009F5750409AF0F1F088234AF0EE0FFF1F33
:103CA000BB1F661F771F881F91505040A9F79E3F8A
:103CB000510580F00C94AE1D0C94F91D5F3FE4F3A8
:103CC000983ED4F3869577956795B795F795E795E0
:103CD0009F5FC1F7FE2B880F911D9695879597F9E9
:103CE000089597FB072E16F4009407D077FD09D0AE
:103CF0000E948B1E07FC05D03EF4909581959F4F46
:103D00000895709561957F4F0895EE0FFF1F059000
:103D1000F491E02D0994AA1BBB1B51E107C0AA1F17
:103D2000BB1FA617B70710F0A61BB70B881F991F5C
:103D30005A95A9F780959095BC01CD010895FB0196
:103D4000DC0102C001900D9241505040D8F7089517
:103D5000DC0101C06D9341505040E0F70895F894A4
:103D6000FFCF030F10111200005403800000000069
:103D7000009301F0001D01FB014E012C0140010DDB
:103D80000A00537461727400436F6E74726F6C003A
:103D9000497320696E6974004C696E652063616CBB
:103DA000696272617465207374617274004C696E2B
:103DB000652063616C6962726174652066696E6911
:103DC0007368004163746976617465206174746519
:103DD0006E74696F6E206D6F64650052554E004CB5
:103DE000696E65446574656374004D6F74696F6EC8
:103DF000457374696D61746F720052756E206D6FDA
:103E000064652064697361626C650049444C4500D7
:083E1000546D7220537663002B
:107E0000112484B714BE81FFF0D085E080938100F7
:107E100082E08093C00088E18093C10086E0809377
:107E2000C20080E18093C4008EE0C9D0259A86E02C
:107E300020E33CEF91E0309385002093840096BBD3
:107E4000B09BFECF1D9AA8958150A9F7CC24DD24C4
:107E500088248394B5E0AB2EA1E19A2EF3E0BF2EE7
:107E6000A2D0813461F49FD0082FAFD0023811F036
:107E7000013811F484E001C083E08DD089C08234E0
:107E800011F484E103C0853419F485E0A6D080C0E4
:107E9000853579F488D0E82EFF2485D0082F10E0AE
:107EA000102F00270E291F29000F111F8ED06801E7
:107EB0006FC0863521F484E090D080E0DECF843638
:107EC00009F040C070D06FD0082F6DD080E0C81688
:107ED00080E7D80618F4F601B7BEE895C0E0D1E017
:107EE00062D089930C17E1F7F0E0CF16F0E7DF06D8
:107EF00018F0F601B7BEE89568D007B600FCFDCFD4
:107F0000A601A0E0B1E02C9130E011968C91119780
:107F100090E0982F8827822B932B1296FA010C0160
:107F200087BEE89511244E5F5F4FF1E0A038BF0790
:107F300051F7F601A7BEE89507B600FCFDCF97BE46
:107F4000E89526C08437B1F42ED02DD0F82E2BD052
:107F50003CD0F601EF2C8F010F5F1F4F84911BD097
:107F6000EA94F801C1F70894C11CD11CFA94CF0C13
:107F7000D11C0EC0853739F428D08EE10CD085E9AC
:107F80000AD08FE07ACF813511F488E018D01DD067
:107F900080E101D065CF982F8091C00085FFFCCF94
:107FA0009093C60008958091C00087FFFCCF809118
:107FB000C00084FD01C0A8958091C6000895E0E648
:107FC000F0E098E1908380830895EDDF803219F02E
:107FD00088E0F5DFFFCF84E1DECF1F93182FE3DFCA
:107FE0001150E9F7F2DF1F91089580E0E8DFEE27F6
:047FF000FF270994CA
:027FFE00040479
:00000001FF
